:020000040000FA
:0600000061EF03F01200A5
:020006000000F8
:0600080004EF08F01200F5
:060018000CEF08F01200DD
:02001E000100DF
:0C00200006000000B80000000200000014
:04002C00DACFE4FF44
:10003000E652E552E5CFDAFF1100D8CFE4FFE0CF7A
:10004000E4FFE46EDACFE4FFE652E552E5CFDAFFF3
:10005000E550E5CFE0FFE5CFD8FF100004D89BECDA
:1000600008F01DD8FCD70F0EC11202D80FEF08F010
:10007000F00E891692160001010EA56F9388938ADF
:100080008150100B01E0010E8E6F8150200B01E0BA
:10009000010E8F6FA06BA16BA26BA36B120000010E
:1000A000A50502E1B5D80CD0A607000EA75BA85B9A
:1000B000A95BA651A711A811A91102E1010EA56F14
:1000C000200E0001E76E6019E8AE02D0E73402D0DE
:1000D000E750605D05E36D50020B01E0120027D888
:1000E0001200D9CFE6FFE1CFD9FF0501006B016B0C
:1000F000FE0EDBCF02F5036B046B056B066B076B23
:10010000080EE66E000EE66E050EE66E010EE66E59
:10011000E66E96EC09F00B6E050EE15E0B50F3CF28
:10012000A0F0F4CFA1F0E552E7CFD9FF1200000113
:10013000A051A11102E1000E08D0A0C0E9FFA1C0AA
:10014000EAFFEF50800B01E0010E00090EE142D8FA
:10015000000902E0810E04D04CD8000903E0800EB3
:10016000E66E01D0E66ABDDFE5520001A251A3119F
:1001700002E1000E08D0A2C0E9FFA3C0EAFFEF50E1
:10018000800B01E0010E000924E1050108A103D064
:100190008980898202D0899089920001A56BE00E46
:1001A000A66F220EA76F020EA86FA96B010EE66E56
:1001B000080EE66E050EE66EE66A010EE66E96EC39
:1001C00009F00B6E050EE15E0B50F3CFA2F0F4CFF9
:1001D000A3F012008150100B01E0010E00018E5DB2
:1001E00007E08150100B01E0010E8E6F81A8010C19
:1001F000000C8150200B01E0010E00018F5D07E033
:100200008150200B01E0010E8F6F81AA010C000CC0
:100210000001B851B91104E1100EB86F270EB96F83
:10022000B807000EB95B6DA207D0B851B9112EE125
:10023000897089B013D027D00001605102E1899004
:1002400022D0600502E1898009D0020E605D02E1E2
:10025000898019D0040E605D03E1899089821200C3
:10026000100E605D06E10001B851B9110FE189700F
:100270000AD0200E605D0AE10001B851B91106E113
:10028000897089A002D08992120089821200899017
:100290008992130ED36E1200D9CFE6FFE1CFD9FFBA
:1002A000020EE126600ED36E200EDE6E030EDD6EB2
:1002B000DFCF0BF0DF06010EDBCF0CF001E2DB0637
:1002C0000B500C10F5E1020EE15C02E2E16AE5522E
:1002D000E16EE552E7CFD9FF12001200120085EF60
:1002E00002F012001E0EE66E010EE66E5FEC09F0E3
:1002F000E552E552010EE66E080EE66E050EE66E5C
:10030000E66A010EE66E96EC09F00B6E050EE15EF4
:100310000B50F3CFA2F0F4CFA3F0120000017F0541
:100320001EE1000180051BE1B7DF6D920001806BCB
:100330000001100EAA6F0E0EAB6FAA07000EAB5B8A
:10034000AA51AB11FAE16D84080EAA6F070EAB6FCC
:10035000AA07000EAB5BAA51AB11FAE16D94120033
:10036000D9CFE6FFE1CFD9FFFD0EDBCF06F0FE0EC1
:10037000DBCF07F0050E061801E1075036E0E8680C
:10038000061802E17F0E07182FE0030E061801E1A0
:10039000075028E0020E061801E1075021E0010E87
:1003A000061801E107501AE0740E061801E1075023
:1003B00013E0750E061801E107500CE0730E0618E5
:1003C00001E1075005E0720E06180FE107500DD04D
:1003D00084DF0BD05CDF09D05FDF07D083DF05D07F
:1003E00080DF03D07CDF01D079DF010EE552E7CF5B
:1003F000D9FF12000001280E766F040E776F080EE9
:10040000796F7A6B100E7B6F040E7C6F788F120001
:10041000040128A103D08980898202D08990899221
:100420000001A56BE00EA66F220EA76F020EA86F4B
:04043000A96B1200A2
:0C0434001201000200000008D80455006E
:1004400001000102000109022900010100E0320956
:100450000400000203010100092111010001223FF3
:1004600000070581030800010705010308000104D6
:1004700003090434034D006900630072006F0063D8
:100480000068006900700020005400650063006887
:10049000006E006F006C006F00670079002000495B
:1004A000006E0063002E001C034B006500790062A3
:1004B000006F006100720064002000440065006D60
:1004C000006F0005010906A101050719E029E715DC
:1004D0000025017501950881029501750881039534
:1004E000057501050819012905910295017503910A
:1004F000039506750815002565050719002965810E
:0A05000000C046046F047304A70452
:06050A00040120511F0B4B
:10051000010801E01200245101E01200060E215DE5
:100520001BE12351230A18E0010A0CE0030A14E13D
:100530000001610511E10001580E716F040E726F28
:10054000090E06D00001C30E716F040E726F3F0ECC
:10055000746F756BC00E736F04012051600BE8421D
:10056000E842E842E842E842010801E01200215175
:100570000B0A28E0080A1BE0090A13E0080A07E052
:100580000B0A03E0080A23E01200FAEF01F0000171
:10059000B60E716F000E726F010E746F756BC10E27
:1005A0000FD00001800E736F23C4B6F0120000015B
:1005B000B70E716F000E726F010E746F756B810E46
:1005C000736F12000001800E736F22C4B7F0120027
:1005D0001E0EF66E000EF76E000EF86E000109009A
:1005E000F550B16F0900F550B26F03E1B16701D06A
:1005F0003DD00900F550AC6F0900F550AD6F090012
:10060000F550AE6F09000900F550E96E0900F5508C
:10061000EA6E090009000900F550AF6F0900F550B6
:10062000B06F09000900F6CFB3F0F7CFB4F0F8CF00
:10063000B5F0ACC0F6FFADC0F7FFAEC0F8FF0001EB
:10064000AF5302E1B05307E00900F550EE6EAF077B
:10065000F8E2B007F9D7B3C0F6FFB4C0F7FFB5C0F2
:0E066000F8FF0001B107000EB25BBFD7120019
:02066E00FE0E7E
:10067000E3CFE9FFFF0EE3CFEAFFE9CFF3FFEACFD5
:10068000F4FFFB0EE35003E1FC0EE35009E0FB0E28
:10069000E30602E2FC0EE306FD0EE350EE6EF1D738
:0206A000120046
:0E06A200000EF36E00EE00F0080E01D81200FC
:1006B000EA6002D0EE6AFCD7F350E9601200EE6AFD
:0206C000FCD765
:0E06C20013EE00F023EE00F0F86A0A9CE8EC5C
:0E06D00002F003EC08F02EEC00F0FBD7120055
:0610000061EF03F0120095
:021006001200D6
:0610080016EF00F01200DB
:061018001DEF00F01200C4
:02101E00D9CF28
:10102000E6FFE1CFD9FFE652A09A6A6A686A706A61
:10103000010EE66EE66AE66A710EE66E0F0EE66E69
:1010400037EC03F00B6E050EE15E0B50160E6F6E63
:101050009F0E6B6E7B0E696EDF6ADF500B6E0C6A43
:10106000080E0B5C000E0C5810E2DF50040DF3CF9D
:10107000E9FFF4CFEAFF000EE926040EEA22EE6A49
:10108000EE6AEE6AEE6ADF2AE8D76D8C6E6A6D98BA
:101090006D9C68A607D068960001736B786B796BBE
:1010A0007A6BF7D70001010E8A6F8B6F8C6B8D6B9B
:1010B000806BDF6A020EDF5C26E2EA6ADF34FE0B39
:1010C000EA36E96E6B0EE926000EEA22EE6AED6A58
:1010D000EA6ADF34FE0BEA36E96E670EE926000E97
:1010E000EA22EE6AED6ADF50EA6A840FE96E000ECA
:1010F000EA22EF6ADF50EA6A860FE96E000EEA2202
:10110000EF6ADF2AD7D70001080E6B6F040E6C6FF1
:10111000160E706E0401200E026F040E036F080E8F
:10112000016F840E006F0001616B606BE552E55248
:10113000E7CFD9FF1200D9CFE6FFE1CFD9FFE652C2
:10114000000160510FE16D6A696A160E6F6E9F0EA5
:101150006B6E7B0E696E6DB602D06D86FCD700019A
:10116000010E606F600508E16DBA06D0686A696AB1
:1011700069806988020E606F6850040B06E0695050
:10118000040B03E0689476EC0EF06DB258D0685012
:10119000010B08E06950010B05E041DF0001040E7E
:1011A000606F68906850100B06E06950100B03E008
:1011B00061EC0EF0689868AC19D069AC0FD0010EE4
:1011C000E66EE66A000EE66EE66A730EE66EE66AA4
:1011D000B0EC01F00B6E060EE15E0B50689C000156
:1011E000885101E08807885101E1DFD96850200B60
:1011F00005E06950200B02E048EC0EF06850020B4D
:1012000013E06950020B10E0010EE66EE66A000E74
:10121000E66EE66AE6687F0EE66EB0EC01F00B6EF5
:10122000060EE15E0B506A6A040E0001E76E60195B
:10123000E8AE02D0E73402D0E750605D02E2A19A46
:1012400039D069A636D0DF6A040EDF5C32E268A6C8
:1012500030D06CCF81F000018151780BE842E84238
:10126000E842826F689681B506D08251EA6A860F9D
:10127000E96E000E05D08251EA6A840FE96E000E15
:10128000EA22EF70825103E18DEC0EF010D0000ED7
:10129000E66EE66A810EE66E000EE66E720EE66E91
:1012A000E66AB0EC01F00B6E060EE15E0B50DF2A31
:1012B000CBD7A19AE552E552E7CFD9FF1200D9CF9B
:1012C000E6FFE1CFD9FF020EE126FD0EDBA407D039
:1012D000E66AFE0EDBCFE6FFF7D9E552E552FD0EDA
:1012E000DBA208D0010EE66EFE0EDBCFE6FFECD9E6
:1012F000E552E552FE0EDB500C6A700F0B6E0F0EBE
:101300000C220BC0DEFF0CC0DDFFDECFE9FFDDCF1E
:10131000EAFFFD0EDBCFEFFF020EE15C02E2E16AC5
:10132000E552E16EE552E7CFD9FF1200D9CFE6FFD3
:10133000E1CFD9FF020EE126FD0EDB500AE0FE0EE2
:10134000EA6ADB34FE0BEA36E96E6B0EE926000E24
:1013500009D0FE0EEA6ADB34FE0BEA36E96E670E50
:10136000E926000EEA22EECFDEFFEDCFDDFFD9CF7A
:10137000E9FFDACFEAFFEE50ED1003E1F36AF46A19
:1013800044D0DECFE9FFDDCFEAFF020EE926000EF2
:10139000EA22FB0EDBCFEEFFFC0EDBCFEDFFDECF54
:1013A000E9FFDDCFEAFFEE52FA0EDBCFEFFF400E92
:1013B000DECFE9FFDDCFEAFFE850EF16880EDECF83
:1013C000E9FFDDCFEAFFE850EF12FD0EDB500AE047
:1013D000FE0EEA6ADB34FE0BEA36E96E6B0EE92696
:1013E000000E09D0FE0EEA6ADB34FE0BEA36E96E27
:1013F000670EE926000EEA22EF74DECF0BF0DDCF98
:101400000CF00BC0F3FF0CC0F4FF020EE15C02E233
:10141000E16AE552E16EE552E7CFD9FF1200D9CF7C
:10142000E6FFE1CFD9FF020EE126FE0EDB5020E100
:1014300065C0E9FF66C0EAFFEE52080EEF6E65C0B8
:10144000E9FF66C0EAFF020EE926000EEA22200E3E
:10145000EE6E040EED6E65C0E9FF66C0EAFF8C0E0D
:10146000EF6E6BC0E9FF6CC0EAFF840EEF6E3BD0FD
:10147000FD0EDB50E8240D6EFE0EDB50040DF35024
:101480000D24040DF3CF0BF0F4CF0CF0000E0B265F
:10149000040E0C220BC0DEFF0CC0DDFF840EDECF7D
:1014A000E9FFDDCFEAFFE850EF12FD0EDB50E82444
:1014B0000D6EFE0EDB50040DF3500D24010F040DD4
:1014C000F3CF0BF0F4CF0CF0000E0B26040E0C2221
:1014D0000BC0DEFF0CC0DDFF840EDECFE9FFDDCFE9
:1014E000EAFFE850EF12020EE15C02E2E16AE55227
:1014F000E16EE552E7CFD9FF1200D9CFE6FFE1CF89
:10150000D9FF6DA84ED0FE0EEA6ADB34FE0BEA3638
:10151000E96E6B0EE926000EEA22EE50EFCFEAFFED
:10152000E96E400EEE16EE6AEE6AEE6AFE0EEA6AAA
:10153000DB34FE0BEA36E96E6B0EE926000EEA227A
:10154000EE50EFCFEAFFE96EEE7CFE0EEA6ADB3486
:10155000FE0BEA36E96E6B0EE926000EEA22EF7406
:10156000400E0B6EFE0EEA6ADB34FE0BEA36E96EC5
:101570006B0EE926000EEA22EE50EFCFEAFFE96E8D
:101580000B50EF16FE0EEA6ADB34FE0BEA36E96E0C
:101590006B0EE926000EEA22EE50EFCFEAFFE96E6D
:1015A000EF7CE552E7CFD9FF120000018A514DE1EF
:1015B000010E8A6F8B5149E1010E8B6F020E705D37
:1015C0000DE16BC0E9FF6CC0EAFFEE52EF6A6BC041
:1015D000E9FF6CC0EAFFC80EEF6E1200700535E13E
:1015E000836B63C0E9FF64C0EAFFEE52080EEF6E42
:1015F00063C0E9FF64C0EAFF020EE926000EEA229A
:10160000200EEE6E040EED6E63C0E9FF64C0EAFFCB
:10161000840EEF6E010E836F65C0E9FF66C0EAFFBE
:10162000EE52080EEF6E65C0E9FF66C0EAFF020EDB
:10163000E926000EEA22200EEE6E040EED6E65C065
:10164000E9FF66C0EAFF800EEF6E120000018C6BAE
:101650008D6B020E705D18E165C0E9FF66C0EAFFA0
:10166000EE52080EEF6E65C0E9FF66C0EAFF020E9B
:10167000E926000EEA22280EEE6E040EED6E65C01D
:10168000E9FF66C0EAFF1DD074510401265D000128
:1016900075510401275904E226C474F027C475F07B
:1016A000CAD86BC0E9FF6CC0EAFF020EE926000E43
:1016B000EA22280EEE6E040EED6E6BC0E9FF6CC0E0
:1016C000EAFFC80EEF6E1200D9CFE6FFE1CFD9FFD7
:1016D000020EE126000EDE6E040EDD6EFD0EDB5006
:1016E000E8240D6EFE0EDB50040DF3500D24040DA6
:1016F000F4CF0CF0D9CFE9FFDACFEAFFF350EE26B2
:101700000C50ED22DECFE9FFDDCFEAFFEF9EFD0EAC
:10171000DB500AE1FE0EEA6ADB34FE0BEA36E96EC4
:10172000670EE926000E09D0FE0EEA6ADB34FE0BD6
:10173000EA36E96E6B0EE926000EEA22DECFEEFFF6
:10174000DDCFEDFFDECFE9FFDDCFEAFFEF9CDECF9F
:10175000E9FFDDCFEAFF040EE926000EEA22EF8C56
:10176000020EE15C02E2E16AE552E16EE552E7CF8A
:10177000D9FF12006D98000173BF2BD078AF09D04C
:10178000020E706F8D5101E161DF00018B6B8A6B7E
:10179000120065C0E9FF66C0EAFFEE52080EEF6E68
:1017A00065C0E9FF66C0EAFF020EE926000EEA22E4
:1017B000200EEE6E040EED6E65C0E9FF66C0EAFF16
:1017C0008C0EEF6E6BC0E9FF6CC0EAFF840EEF6E0B
:1017D0001200040120AF0DD00001010E706F8C517A
:1017E00001E134DF00018B6B8A6B895123E1D5EF76
:1017F0000AF00001020E706F65C0E9FF66C0EAFFE3
:10180000EE52080EEF6E65C0E9FF66C0EAFF020EF9
:10181000E926000EEA22200EEE6E040EED6E65C083
:10182000E9FF66C0EAFF840EEF6E8B6B8A6B89510D
:1018300001E1BBDE1200D9CFE6FFE1CFD9FFE652CE
:10184000080EDF6E0001745D000E75590AE274C067
:10185000DFFF6F5102E1010E03D06F0502E1020EBE
:101860006F6FDF500C6AE850745D746F0C507559DF
:10187000756F6BC0E9FF6CC0EAFFEE52DFCFEFFF80
:10188000280E7D6F040E7E6F73B118D0DF502DE0EF
:1018900071C0F6FF72C0F7FF712B000E72230800B3
:1018A000F550E66E7DC0E9FF7EC0EAFF7D2B000E9D
:1018B0007E23E552E750EF6EDF06E8D7DF5015E0F4
:1018C00071C0E9FF72C0EAFF712B000E7223EF5066
:1018D000E66E7DC0E9FF7EC0EAFF7D2B000E7E2311
:1018E000E552E750EF6EDF06E9D7E552E552E7CF64
:1018F000D9FF1200D9CFE6FFE1CFD9FF020EE126D2
:1019000063C0E9FF64C0EAFFEE52EFCFDFFFDFCF35
:101910000BF00B500001795D000E7A5902E279C09C
:10192000DFFFDF500B6E0C6AE850795D796F0C5069
:101930007A597A6F010EDB6ADF50F36E010EDBCF4E
:10194000F4FFF350F45C16E2010EDB50EA6A280F54
:10195000E96E040EEA22EF50E66E76C0E9FF77C02A
:10196000EAFF762B000E7723E552E750EF6E010E6B
:10197000DB2AE2D7000ED8807955000E7A5527E28F
:1019800065C0E9FF66C0EAFFEE52080EEF6E65C063
:10199000E9FF66C0EAFF020EE926000EEA22280EE1
:1019A000EE6E040EED6E63C0E9FF64C0EAFFEF5017
:1019B000400B06E165C0E9FF66C0EAFFC80E05D02E
:1019C00065C0E9FF66C0EAFF880EEF6E28D065C0EB
:1019D000E9FF66C0EAFFEE52080EEF6E65C0E9FF50
:1019E00066C0EAFF020EE926000EEA22200EEE6E25
:1019F000040EED6E65C0E9FF66C0EAFF840EEF6E6F
:101A00007B517C1107E005D07CC0FAFF00017B51BF
:101A1000F96EFADF0001789F895101E1C6DD020EFF
:101A2000E15C02E2E16AE552E16EE552E7CFD9FFFF
:101A30001200D9CFE6FFE1CFD9FFE6520001738F44
:101A4000010EE66EE66AE66A710EE66E0F0EE66E4F
:101A500037EC03F00B6E050EE15E0B50200EE66EC8
:101A6000E66AE66A000EE66E040EE66E37EC03F0F8
:101A70000B6E050EE15E0B506D8CDF6A020EDF5CB3
:101A800010E2DF50EA6A840FE96E000EEA22EF6A84
:101A9000DF50EA6A860FE96E000EEA22EF6ADF2A5B
:101AA000EDD7010EE66EE66AE66A620EE66E000E9D
:101AB000E66E37EC03F00B6E050EE15E0B506D9C8D
:101AC0000001080E6B6F040E6C6F000E636F040E46
:101AD000646F63C065F0666F22C461F0615102E11A
:101AE000100E12D0010EE66EE66A610EE66E000E72
:101AF000E66E010EE66EE66AB0EC01F00B6E060EC5
:101B0000E15E0B500001200E606FE552E552E7CF19
:101B1000D9FF1200800E0401205D58E10001C00EC3
:101B2000736F04012351030A2FE0010A09E0030A3D
:101B30004BE10001340E716F040E726F120E3ED035
:101B40002251F66EF76AD890F636F736020EF62670
:101B5000050EF7220900F5CF71F00A00F5CF72F0FB
:101B6000020E0001F76A7125F66E7251F722080025
:101B7000F5CF74F0030EF76A7125F66E7251F722F5
:101B80000800F5CF75F01200030E225D1AE2225113
:101B9000F66EF76AD890F636F736040EF626050E7E
:101BA000F7220900F5CF71F00A00F5CF72F071C08D
:101BB000F6FF72C0F7FF0800F5500001746F756BF7
:101BC00012000001736B12000001736B1200D9CF79
:101BD000E6FFE1CFD9FF020EE1260401286B296B55
:101BE00020511F0B020A11E0030A0CE0010A3CE13C
:101BF0000001738F0401288100017F0535E1040194
:101C0000288332D00001738F2FD00001738F04011D
:101C100024BF0BD024510F0BE96EEA6AD890E93645
:101C2000EA36670EE926000E0AD024510F0BE96E42
:101C3000EA6AD890E936EA366B0EE926000EEA2207
:101C4000EECFDEFFEDCFDDFFDECFE9FFDDCFEAFF38
:101C5000EF50800B09E0DECFE9FFDDCFEAFFEF5068
:101C6000040B02E0010E286F000173AF07D0280EAD
:101C7000716F040E726F7381020E746F020EE15C5D
:101C800002E2E16AE552E16EE552E7CFD9FF1200C8
:101C900070A015D063C0E9FF64C0EAFFEF50800870
:101CA0000DE16BC0E9FF6CC0EAFFEF50840806E16C
:101CB00063C0E9FF64C0EAFF8C0EEF6E7090689A13
:101CC0001200698468986D820001010E806F000E19
:101CD000E66EE66AE66EE66A750EE66EE66AB0ECF9
:101CE00001F00B6E060EE15E0B5012000001806BDE
:101CF000000EE66EE66AE66EE66A740EE66EE66A68
:101D0000B0EC01F00B6E060EE15E0B506D92699423
:101D100068A402D06894FCD71200D9CFE6FFE1CFC7
:101D2000D9FFE65200012D0E886FFD0E811553E19B
:101D30007E0E8115E8407F0B040DF3CF63F0F4CFE6
:101D400064F0000E6327040E642363C065F064C072
:101D500066F0657563C0E9FF64C0EAFFEF503C0BB5
:101D6000E842E8420D0835E1DF6A080EDF5C23E255
:101D700063C0E9FF64C0EAFF020EE926000EEA2212
:101D8000EE50EFCFEAFFE96EEF50E66EDF50EA6A01
:101D9000200FE96E040EEA22E552E750EF6E63C0B1
:101DA000E9FF64C0EAFF020EE926000EEA22EE2AED
:101DB000EF22DF2ADAD763C0E9FF64C0EAFF020E30
:101DC000E926000EEA22200EEE6E040EED6E0DD80E
:101DD00007D03AD805D0FD0E8115040801E159D885
:101DE000E552E552E7CFD9FF120000016F6B896B16
:101DF0008C6B8D6B836B706B6BC0E9FF6CC0EAFF03
:101E0000EF9E6B756BC0E9FF6CC0EAFFEF9E6B75D0
:101E100065C0E9FF66C0EAFFEF9E736B746B756B7C
:101E2000786B796B7A6B8CD8000EE66EE66AE66E9C
:101E3000E66A030EE66EE66AB0EC01F00B6E060E83
:101E4000E15E0B50BAEF0BF0020E0001705D02E193
:101E50007AEF0CF0706B83511AE165C0E9FF66C040
:101E6000EAFFEE52080EEF6E65C0E9FF66C0EAFFBA
:101E7000020EE926000EEA22200EEE6E040EED6E32
:101E800065C0E9FF66C0EAFF8C0EEF6E1200836B3F
:101E90001200D9CFE6FFE1CFD9FFE6526BC0E9FFD0
:101EA0006CC0EAFFEF50400B01E0010EDF6E000155
:101EB0006B75080E605D08E122C46EFF6E5002E093
:101EC000100E01D0040E606F700526E16BC0E9FFB3
:101ED0006CC0EAFF020EE926000EEA22280EEE6E22
:101EE000040EED6EA8DC020E00016F5D06E16BC012
:101EF000E9FF6CC0EAFF840E0DD0DF5006E16BC035
:101F0000E9FF6CC0EAFFC80E05D06BC0E9FF6CC0EA
:101F1000EAFF880EEF6E0FD078AF0CD07B517C11AA
:101F200007E005D07CC0FAFF00017B51F96EFADFB3
:101F30000001789F706BE552E552E7CFD9FF1200A0
:101F400004012051600BE842E842E842E842E842DE
:101F5000000901E0120021510C0A50E00B0A3FE099
:101F60000C0A31E0010A22E00B0A1EE0020A1CE022
:101F7000030A18E0080A10E0010A0CE00F0A08E062
:101F8000030A01E012000001738F080E606F120057
:101F90008AEF0DF019EF0DF00001610E716F000E68
:101FA000726F0CD0E7EF0DF0FFEF0FF0245100013E
:101FB000716F726B620E7127000E72237381010EB6
:101FC000746F738F12000001738F04012451EA6A49
:101FD000620FE96E000EEA2222C4EFFF1200000E2B
:101FE000E66EE66AE66EE66A020EE66EE66AB0EC59
:101FF00001F00B6E060EE15E0B5012001200D9CFFD
:10200000E6FFE1CFD9FF050EE1260401220510E12C
:1020100020511F0B00090CE10001738F030E040116
:10202000215D04E10001010E7F6F02D000017F6B92
:102030000401225101E011D120511F0B020801E0DF
:102040000CD124510F0B000901E107D124510F0BD2
:10205000010801E202D1200E0001605D01E0FDD027
:10206000738F040124BF16D024510F0BE96EEA6A66
:10207000D890E936EA36670EE926000EEA22EECF5E
:10208000DEFFEDCFDDFF24510F0BEA6A860FE96E0C
:10209000000E15D024510F0BE96EEA6AD890E9368C
:1020A000EA366B0EE926000EEA22EECFDEFFEDCF18
:1020B000DDFF24510F0BEA6A840FE96E000EEA225D
:1020C000020EEFCFDBFFD950020FE96EDACFEAFF45
:1020D000EF50010B03E1000EDF9401D0DF8424BF39
:1020E0000BD024510F0BE96EEA6AD890E936EA3634
:1020F000670EE926000E0AD024510F0BE96EEA6A3A
:10210000D890E936EA366B0EE926000EEA22DECFD9
:10211000EEFFDDCFEDFF030E215D20E1DECFE9FF15
:10212000DDCFEAFFEF50800B11E024BF07D0245130
:102130000F0BEA6A860FE96E000E06D024510F0BD2
:10214000EA6A840FE96E000EEA22EF82840EDECF87
:10215000E9FFDDCFEAFFE850EF127FD0DF74DECF7A
:10216000E9FFDDCFEAFFEF50800B1BE0DECFE9FF98
:10217000DDCFEAFFEF9EDECFE9FFDDCFEAFFEF8C98
:10218000020EE66EE66ADECFE6FFDDCFE6FF050E65
:10219000E66EE66AB0EC01F00B6E060EE15E0B50E7
:1021A00005D0DECFE9FFDDCFEAFFEF8CDF74D95039
:1021B000020FE96EDACFEAFFEF50020B07E1DECF44
:1021C000E9FFDDCFEAFFEF50800B2BE0040124BFD5
:1021D00007D024510F0BEA6A860FE96E000E06D075
:1021E00024510F0BEA6A840FE96E000EEA22EF9287
:1021F0003B0E0B6EDECFE9FFDDCFEAFFE850EF16B6
:10220000020EE66EE66ADECFE6FFDDCFE6FF050EE4
:10221000E66EE66AB0EC01F00B6E060EE15E0B5066
:1022200007D03B0EDECFE9FFDDCFEAFFE850EF1627
:10223000040124510F0B0C6A700F0B6E0F0E0C2251
:10224000030E0BC0DBFF040E0CC0DBFF030EDBCF65
:10225000E9FF040EDBCFEAFFEF90050EE15C02E23E
:0E226000E16AE552E16EE552E7CFD9FF1200C8
:020000040030CA
:0100000024DB
:010001000EF0
:010002003FBE
:010003001EDE
:010005008179
:010006008178
:010008000FE8
:01000900C036
:01000A000FE6
:01000B00E014
:01000C000FE4
:01000D0040B2
:00000001FF
