:020000040000FA
:06000000CFEF07F0120033
:020006001200E6
:0600080004EF08F01200F5
:060018000CEF08F01200DD
:02001E0053ECA1
:1000200006F0A09A6A6A686A706A4DEC06F0E8EC1D
:1000300005F0DF6ADF500B6E0C6A080E0B5C000ED9
:100040000C5810E2DF50040DF3CFE9FFF4CFEAFFC4
:10005000000EE926040EEA22EE6AEE6AEE6AEE6A05
:10006000DF2AE8D76D8C6E6A6D986D9C68A607D004
:1000700068960001736B786B796B7A6BF7D7000128
:10008000010E8A6F8B6F8C6B8D6B806BDF6A020E3B
:10009000DF5C11E2EA6ADF3456EC06F0EA22EE6A2F
:1000A000ED6AEA6ADF345DEC06F0EA22EE6AED6A98
:1000B000A1EC05F0ECD70001080E6B6F040E6C6F1D
:1000C000160E706E0401200E026F040E036F080EF0
:1000D000016F840E006F0001616B606BE55273EF7E
:1000E00005F053EC06F0000160510BE16D6A696A9E
:1000F000E8EC05F06DB602D06D86FCD70001010E6C
:10010000606F600508E16DBA06D0686A696A698047
:100110006988020E606F6850040B05E06950040B9B
:1001200002E0689424DB6DB244D06850010B08E013
:100130006950010B05E073DF0001040E606F6890E9
:100140006850100B05E06950100B02E006DB689860
:1001500068AC0FD069AC05D0EFEC05F0730E60EC25
:1001600005F0689C0001885101E08807885101E191
:10017000EFD86850200B04E06950200B01E0DDDA75
:100180006850020B0BE06950020B08E0EFEC05F041
:10019000E6687F0EE66E64EC06F06A6A040E000103
:1001A000E76E6019E8AE02D0E73402D0E750605D38
:1001B00002E2A19A2ED069A62BD0DF6A040EDF5C82
:1001C00027E268A625D06CCF81F000018151780B21
:1001D000E842E842E842826F689681B504D08251D5
:1001E0006BEC06F003D0825170EC06F0EA22EF705F
:1001F000825102E1C8DA0AD0000EE66EE66A810E8C
:10020000E66E000EE66E720E60EC05F0DF2AD6D7C1
:10021000A19AE55273EF05F027EC06F0FD0EDBA482
:1002200003D0E66AD8EC05F0FD0EDBA204D0010E87
:10023000E66ED8EC05F0FE0EDB500C6A700F0B6E0C
:100240000F0ED2EC05F064EC05F0FD0EDBCFEFFFF6
:10025000020EE15C02E2E16AE552E16E73EF05F045
:1002600027EC06F0FD0EDB5003E05BEC05F002D05E
:1002700092EC05F0BEEC05F0D9CFE9FFDACFEAFF4A
:10028000EE50ED1003E1F36AF46A28D064EC05F057
:100290007FEC06F0FB0EDBCFEEFFFC0EDBCFEDFFBD
:1002A00064EC05F0EE52FA0EDBCFEFFF400E75EC7A
:1002B00006F0880E84EC06F0FD0EDB5003E05BECEC
:1002C00005F002D092EC05F0EA22EF74DECF0BF0DD
:1002D000DDCF0CF00BC0F3FF0CC0F4FF020EE15CAD
:1002E00002E2E16AE552E16E73EF05F027EC06F0F9
:1002F000FE0EDB5003E135EC06F009D097EC05F07B
:1003000015EC06F097EC05F0010F15EC06F0020E67
:10031000E15C02E2E16AE552E16EE5D3DFDB6DA864
:1003200016D046EC06F0400EEE16EE6AEE6AEE6A65
:1003300046EC06F0EE7CBFDBEA22EF74400E0B6E5B
:1003400046EC06F00B50EF1646EC06F0EF7CCBD3F4
:1003500000018A5122E1010E8A6F8B511EE1010ECC
:100360008B6F020E705D07E1B4DBEE52EF6AB1DB1A
:10037000C80EEF6E1200700510E1836BC0DBEE5209
:10038000080EEF6EBCDB21EC06F0B9DB840EEF6EDD
:10039000010E836F8CDB800EEF6E120000018C6B00
:1003A0008D6B020E705D06E179EC06F0ADDB10ECB2
:1003B00006F010D074510401265D0001755104014E
:1003C000275904E226C474F027C475F061D881DB94
:1003D0009BDB7FDBC80EEF6E120027EC06F0000EF1
:1003E000DE6E040EDD6EA3DB040DF4CF0CF0D9CF6E
:1003F000E9FFDACFEAFFF350EE260C50ED2264DB82
:10040000EF9EFD0EDB5002E18DDB01D054DBEA22D2
:10041000DECFEEFFDDCFEDFF57DBEF9C55DB040EAB
:10042000E926000EEA22EF8C020EE15C02E2E16AAC
:10043000E552E16E58D36D98000173BF0DD078AFCF
:1004400009D0020E706F8D5101E1A8DF00018B6BA6
:100450008A6B120035EF06F0040120AF0DD00001C9
:10046000010E706F8C5101E199DF00018B6B8A6B7B
:1004700089510DE1A8EF01F00001020E706F17DB4A
:10048000840EEF6E8B6B8A6B895101E161DF120084
:1004900053EC06F0080EDF6E0001745D000E755916
:1004A0000AE274C0DFFF6F5102E1010E03D06F0555
:1004B00002E1020E6F6FDF500C6AE850745D746FDA
:1004C0000C507559756F05DBEE52DFCFEFFF280E2C
:1004D0007D6F040E7E6F73B10DD0DF5017E071C0D9
:1004E000F6FF72C0F7FF712B000E72230800F55063
:1004F00038DBF3D7DF500AE071C0E9FF72C0EAFFD2
:10050000712B000E7223EF502CDBF4D7E552EBD2A7
:100510009EDBF5DAEE52EFCFDFFFDFCF0BF00B50B3
:100520000001795D000E7A5902E279C0DFFFDF50E9
:100530000B6E0C6AE850795D796F0C507A597A6FBE
:10054000010EDB6ADF50F36E010EDBCFF4FFF350D8
:10055000F45C16E2010EDB50EA6A280FE96E040E25
:10056000EA22EF50E66E76C0E9FF77C0EAFF762B0D
:10057000000E7723E552E750EF6E010EDB2AE2D73B
:10058000000ED8807955000E7A550DE2B2DBBCDA48
:10059000B6DAEF50400B03E143DBC80E02D040DB7C
:1005A000880EEF6E12D083DA840EEF6E7B517C11D1
:1005B00007E005D07CC0FAFF00017B51F96EFADF3D
:1005C0000001789F895101E1C3DE020EE15C02E285
:1005D000E16AE552E16E87D266DB0001738F5DDB75
:1005E000200EE66EE66AE66A000EE66E040E92DA09
:1005F0006D8CDF6A020EDF5C02E2A3DAFBD70BDB55
:10060000620EE66E000E86DA6D9C0001080E6B6FBE
:10061000040E6C6F000E636F040E646F63C065F0B0
:10062000666F22C461F0615102E1100E0BD0010E21
:10063000E66EE66A610EE66E000EE66E010E40DAC8
:100640000001200E606FE5524ED2800E0401205D45
:1006500038E10001C00E736F04012351030A1AE050
:10066000010A09E0030A2BE10001100E716F0D0E63
:10067000726F120E1ED0C1DADE0EF6260D0EA0DA53
:10068000020E0001B3DAF5CF74F0030EAFDAF5CF46
:1006900075F01200030E225D0FE2AFDAE00EF626CF
:1006A0000D0E8EDA71C0F6FF72C0F7FF0800F5502C
:1006B0000001746F756B12000001736B1200000172
:1006C000736B1200C4DA0401286B296B20511F0BD5
:1006D000020A11E0030A0CE0010A1EE10001738F17
:1006E0000401288100017F0517E10401288314D04B
:1006F0000001738F11D00001738F040124BF02D059
:10070000BBDA01D0BEDA3ADAC4DA06E0DDD9EF505E
:10071000040B02E0010E286F000173AF07D0280E12
:10072000716F040E726F7381020E746F020EE15CC2
:1007300002E2E16AE552E16ED6D170A00CD0DFD9B9
:10074000EF50800807E1C5D9EF50840803E1D7D9FD
:100750008C0EEF6E7090689A1200698468986D82B2
:100760000001010E806F10DA750E60EF05F00001D8
:10077000806B0ADA740EA4D96D92699468A402D0D1
:100780006894FCD712008FDA00012D0E886FFD0EE1
:10079000811539E17E0E8115E8407F0B040DF3CF02
:1007A00063F0F4CF64F0000E6327040E642363C08B
:1007B00065F064C066F06575A2D9EF503C0BE84265
:1007C000E8420D081EE1DF6A080EDF5C16E297D9E9
:1007D000020EE926000EBFD9EF50E66EDF50EA6A3E
:1007E000200FE96E040EEA22E552E750EF6E87D93A
:1007F00086DAEE2AEF22DF2AE7D781D922DA0AD871
:1008000007D023D805D0FD0E8115040801E12CD8AE
:10081000E55269D100016F6B896B8C6B8D6B836BBB
:10082000706B57D9EF9E6B7554D9EF9E6B75F8D9E5
:10083000EF9E736B746B756B786B796B7A6B4ED8BC
:10084000A3D9030E3DD91BEF02F0020E0001705D2B
:1008500002E188EF02F0706B835104E128D98C0E1D
:10086000EF6E1200836B12001EDA33D9EF50400B8B
:1008700001E0010EDF6E00016B75080E605D08E19E
:1008800022C46EFF6E5002E0100E01D0040E606FA5
:10089000700513E11ED938D9FBDD020E00016F5D32
:1008A00003E117D9840E07D0DF5003E112D9C80E37
:1008B00002D00FD9880EEF6E0FD078AF0CD07B51DD
:1008C0007C1107E005D07CC0FAFF00017B51F96E76
:1008D000FADF0001789F706BE55205D104012051C9
:1008E000600BE842E842E842E842E842000901E0E1
:1008F000120021510C0A45E00B0A3FE00C0A31E0DE
:10090000010A22E00B0A1EE0020A1CE0030A18E0BA
:10091000080A10E0010A0CE00F0A08E0030A01E0EF
:1009200012000001738F080E606F120025EF03F0B4
:10093000ECEF02F00001610E716F000E726F0CD0CF
:1009400062EF03F0C2EF04F024510001716F726B8B
:10095000620E7127000E72237381010E746F738F04
:1009600012000001738F04012451EA6A620FE96EDC
:10097000000EEA2222C4EFFF120006D9020E60EF39
:1009800005F01200ABD8050EE1260401220510E1A6
:1009900020511F0B00090CE10001738F030E0401AD
:1009A000215D04E10001010E7F6F02D000017F6B29
:1009B0000401225101E074D020511F0B020870E1A4
:1009C00024510F0B00096CE024510F0B010868E360
:1009D000200E0001605D64E1738F040124BF04D028
:1009E0004BD9CCD8D7D803D04CD9C8D8D7D8EA223D
:1009F000020EEFCFDBFF08D9010B03E1000EDF94FD
:100A000001D0DF8424BF02D037D901D03AD9EA22FD
:100A1000DECFEEFFDDCFEDFF030E215D0CE139D916
:100A200007E024BF02D0B6D801D0B8D8EA22EF82BE
:100A3000840E6AD935D0DF742CD906E045D8EF9EF4
:100A400043D8EF8C08D902D03FD8EF8CDF74DCD8C4
:100A5000020B02E11ED90DE0040124BF02D09AD896
:100A600001D09CD8EA22EF923B0E0B6E3ED9F3D810
:100A700002D03B0E3AD9040124510F0B0C6A700FBF
:100A80000B6E0F0E0C22030E0BC0DBFF040E0CC00E
:100A9000DBFF030EDBCFE9FF040EDBCFEAFFEF90B5
:100AA000050EE15C02E2E16AE552E16E1CD021D95B
:100AB000C8D810EF06F0FE0EEA6ADB3456EF06F0F7
:100AC000E66EE66A64EF06F0DECFE9FFDDCFEAFF0F
:100AD00012006BC0E9FF6CC0EAFF1200D9CFE6FF3D
:100AE000E1CFD9FF1200E552E7CFD9FF1200245120
:100AF0000F0BE96EEA6AD890E936EA36120063C055
:100B0000E9FF64C0EAFF1200FAD8280EEE6E040E68
:100B1000ED6E1200E66EA5EC07F00B6E050EE15EC1
:100B20000B501200FE0EEA6ADB345DEF06F0FD0E9C
:100B3000DB50E8240D6EFE0EDB50040DF3500D2447
:100B40001200DF50CDD8EA22EF6ADF50C4D8EA2283
:100B5000EF6ADF2A1200EA22EE50EFCFEAFFE96ED9
:100B60001200E66E7DC0E9FF7EC0EAFF7D2B000E1D
:100B70007E23E552E750EF6EDF061200EA22EECF49
:100B8000DEFFEDCFDDFF1200000EE66EE66AE66ED8
:100B9000E66A120024510F0B6BEF06F024510F0B85
:100BA00070EF06F00C220BC0DEFF0CC0DDFF120060
:100BB000FE0EDBCFE6FFEDEC01F0E552E552120050
:100BC000F7220900F5CF71F00A00F5CF72F012009C
:100BD000160E6F6E9F0E6B6E7B0E696E1200010E0D
:100BE000E66EE66A000EE66EE66A1200F76A7125A6
:100BF000F66E7251F722080012002251F66EF76A63
:100C0000D890F636F7361200D950020FE96EDACFD7
:100C1000EAFFEF501200010EE66EE66AE66A120085
:100C200065C0E9FF66C0EAFF1200040DF3CF0BF0C8
:100C3000F4CF0CF0000E0B26040EB4DF840E84EF0C
:100C400006F05DD8200EEE6E040EED6E120046DF4B
:100C5000020EE1261200020EE66EE66ADECFE6FF25
:100C6000DDCFE6FF050E60EF05F021DF8C0EEF6EA5
:100C700030DF840EEF6E12003ADF670EE926000EB9
:100C8000120035DF6B0EE926000E120014DFABEF09
:100C900005F01ADFEF50800B1200BDDF710EE66E1B
:100CA0000F0E8AEF05F01ADFE6521200FE0BEA364D
:100CB000E96E6B0EE926000E1200FE0BEA36E96EB5
:100CC000670EE926000E120054EC09F00B6E060EBA
:100CD000E15E0B501200EA6A860FE96E000E120008
:100CE000EA6A840FE96E000E1200EEDEE850EF169D
:100CF000120096DFEE52080EEF6E10EF06F0020EB5
:100D0000E926000EEA221200DFDEE850EF121200A0
:100D10001201000200000008D80455000100010281
:100D2000000109022900010100E03209040000026B
:100D300003010100092111010001223F0007058183
:100D40000308000107050103080001040309043436
:100D5000034D006900630072006F00630068006962
:100D6000007000200054006500630068006E006F92
:100D7000006C006F0067007900200049006E00637E
:100D8000002E001C034B006500790062006F0061BB
:100D900000720064002000440065006D006F0005D3
:100DA000010906A101050719E029E71500250175CC
:100DB0000195088102950175088103950575010566
:100DC000081901290591029501750391039506758E
:100DD00008150025650507190029658100C0220D49
:060DE0004B0D4F0D830DC9
:0A0DE600040120511F0B010801E079
:100DF0001200245101E01200060E215D1BE1235177
:100E0000230A18E0010A0CE0030A14E1000161055D
:100E100011E10001340E716F0D0E726F090E06D0D4
:100E200000019F0E716F0D0E726F3F0E746F756B28
:100E3000C00E736F04012051600BE842E842E842A3
:100E4000E842E842010801E0120021510B0A28E0C3
:100E5000080A1BE0090A13E0080A07E00B0A03E08E
:100E6000080A23E0120098EF09F00001B90E716F33
:100E7000000E726F010E746F756BC10E0FD0000102
:100E8000800E736F23C4B9F012000001BA0E716FA7
:100E9000000E726F010E746F756B810E736F12000E
:0C0EA0000001800E736F22C4BAF0120033
:040EAC00060EF66ECA
:100EB000100EF76E000EF86E00010900F550B46FC9
:100EC0000900F550B56F03E1B46701D03DD00900CA
:100ED000F550AF6F0900F550B06F0900F550B16FD4
:100EE00009000900F550E96E0900F550EA6E0900A5
:100EF00009000900F550B26F0900F550B36F090001
:100F00000900F6CFB6F0F7CFB7F0F8CFB8F0AFC022
:100F1000F6FFB0C0F7FFB1C0F8FF0001B25302E125
:100F2000B35307E00900F550EE6EB207F8E2B307DD
:100F3000F9D7B6C0F6FFB7C0F7FFB8C0F8FF000199
:0A0F4000B407000EB55BBFD7120026
:060F4A00FE0EE3CFE9FFFB
:100F5000FF0EE3CFEAFFE9CFF3FFEACFF4FFFB0E8A
:100F6000E35003E1FC0EE35009E0FB0EE30602E26E
:0E0F7000FC0EE306FD0EE350EE6EF1D712000C
:020F7E00000E63
:100F8000F36E00EE00F0080E01D81200EA6002D005
:0E0F9000EE6AFCD7F350E9601200EE6AFCD75F
:020F9E0013EE50
:100FA00000F023EE00F0F86A0A9C56EC07F003EC20
:0A0FB00000F06AEC08F0FBD7120015
:06100000CFEF07F0120023
:021006000000E8
:061008000FEF08F01200DA
:0610180059EF08F0120080
:02101E00DACF27
:10102000E4FFE2CFDAFFE9CFE4FFEACFE4FFF6CF57
:10103000E4FFF7CFE4FFF5CFE4FFF3CFE4FFF4CF15
:10104000E4FFFACFE4FF00EE00F00B0EE80403E348
:10105000EECFE4FFFBD700EE0BF0030EE80403E352
:10106000EECFE4FFFBD7E6525BD8E55200EE0DF081
:10107000030EE80403E3E5CFEDFFFBD700EE0AF033
:101080000B0EE80403E3E5CFEDFFFBD7E5CFFAFF56
:10109000E5CFF4FFE5CFF3FFE5CFF5FFE5CFF7FFB1
:1010A000E5CFF6FFE5CFEAFFE5CFE9FFE5CFDAFFD1
:1010B0001100D8CFE4FFE0CFE4FFE46EDACFE4FF25
:1010C000E652E552E5CFDAFFE550E5CFE0FFE5CFA8
:1010D000D8FF100004D871EC00F011D8FCD70F0E27
:1010E000C11202D80FEF00F00001A06BA16BA26B40
:1010F000A36BF19EF290F286F28EAA6B1200200E84
:101100000001E76E6019E8AE02D0E73402D0E75084
:10111000605D05E36D50020B01E012003BD8120048
:1011200027D9E652F2A01AD0F29081380F0B030BA8
:10113000DF6E0001AC51040DF350DF24AC6F0F0ED5
:10114000AC17AC51070A06E00A0A08E1AAC0ABF0E6
:10115000010E03D0AAC0ABF0020EAA6FE5520DD16A
:1011600007D90501006B016BFE0EDBCF02F5036BA7
:10117000046B056B066B076B080EE66E000EE66EE1
:10118000050EE66E010EE66EFCD8F3CFA0F0F4CFAC
:10119000A1F0F3D0EDD8E6520001A051A11102E177
:1011A000000E08D0A0C0E9FFA1C0EAFFEF50800BFD
:1011B00001E0010E000919E1AB5102E1AA5115E06D
:1011C000AA5102E1DF6A09D0AA0502E1800E04D02B
:1011D000020EAA5D02E1810EDF6EDFCFE6FFC0DF07
:1011E000E552AAC0ABF00001AA6BE552C6D08990C7
:1011F0008992130ED36E1200BBD8020EE126600E48
:10120000D36E200EDE6E030EDD6EDFCF0BF0DF0639
:10121000010EDBCF0CF001E2DB060B500C10F5E108
:10122000020EE15C02E2E16AE552E16EA6D0120034
:101230001200F3EF06F012001E0EE66E010EE66ECF
:101240000CEC01F0E552E552010EE66E080EE66E7A
:10125000050EE66EE66A010E94D8F3CFA2F0F4CF45
:10126000A3F0120000017F051EE1000180051BE1D3
:10127000C3DF6D920001806B0001100EAD6F0E0E8A
:10128000AE6FAD07000EAE5BAD51AE11FAE16D84ED
:10129000080EAD6F070EAE6FAD07000EAE5BAD5121
:1012A000AE11FAE16D94120063D8FD0EDBCF06F0AB
:1012B000FE0EDBCF07F0050E061801E1075036E001
:1012C000E868061802E17F0E07182FE0030E0618E3
:1012D00001E1075028E0020E061801E1075021E065
:1012E000010E061801E107501AE0740E061801E11C
:1012F000075013E0750E061801E107500CE0730E5D
:10130000061801E1075005E0720E06180FE10750BC
:101310000DD08DDF0BD06BDF09D06EDF07D08CDFF7
:1013200005D089DF03D085DF01D082DF010E25D013
:101330000001280E766F040E776F080E796F7A6BB6
:101340004C0E7B6F130E7C6F788F1200040128A166
:1013500003D08980898202D0899089920001A56B8F
:10136000E00EA66F220EA76F020EA86FA96B1200E7
:10137000D9CFE6FFE1CFD9FF1200E552E7CFD9FF81
:101380001200E66E30EC01F00B6E050EE15E0B50C4
:02139000120049
:020000040030CA
:0100000024DB
:010001000EF0
:010002003FBE
:010003001EDE
:010005008179
:010006008178
:010008000FE8
:01000900C036
:01000A000FE6
:01000B00E014
:01000C000FE4
:01000D0040B2
:00000001FF
