:020000040000FA
:06000000D6EF07F012002C
:0100060000F9
:0600080004EF08F01200F5
:060018000CEF08F01200DD
:02001E000100DF
:0C00200006000000B90000000100000014
:04002C005AEC06F094
:10003000A09A6A6A686A706A54EC06F0EFEC05F000
:10004000DF6ADF500B6E0C6A080E0B5C000E0C585A
:1000500010E2DF50040DF3CFE9FFF4CFEAFF000E0A
:10006000E926040EEA22EE6AEE6AEE6AEE6ADF2AFA
:10007000E8D76D8C6E6A6D986D9C68A607D06896FF
:100080000001736B786B796B7A6BF7D70001010E07
:100090008A6F8B6F8C6B8D6B806BDF6A020EDF5CFF
:1000A00011E2EA6ADF345DEC06F0EA22EE6AED6AFC
:1000B000EA6ADF3464EC06F0EA22EE6AED6AA8EC44
:1000C00005F0ECD70001080E6B6F040E6C6F160E76
:1000D000706E0401200E026F040E036F080E016F94
:1000E000840E006F0001616B606BE5527AEF05F0E2
:1000F0005AEC06F0000160510BE16D6A696AEFECA1
:1001000005F06DB602D06D86FCD70001010E606F60
:10011000600508E16DBA06D0686A696A6980698815
:10012000020E606F6850040B05E06950040B02E09A
:10013000689424DB6DB244D06850010B08E069502C
:10014000010B05E073DF0001040E606F68906850DA
:10015000100B05E06950100B02E006DB689868ACF4
:100160000FD069AC05D0F6EC05F0730E67EC05F026
:10017000689C0001885101E08807885101E1EFD8AF
:100180006850200B04E06950200B01E0DDDA685074
:10019000020B0BE06950020B08E0F6EC05F0E66894
:1001A0007F0EE66E6BEC06F06A6A040E0001E76EE5
:1001B0006019E8AE02D0E73402D0E750605D02E299
:1001C000A19A2ED069A62BD0DF6A040EDF5C27E24D
:1001D00068A625D06CCF81F000018151780BE842F0
:1001E000E842E842826F689681B504D0825172EC91
:1001F00006F003D0825177EC06F0EA22EF708251CC
:1002000002E1C8DA0AD0000EE66EE66A810EE66EFA
:10021000000EE66E720E67EC05F0DF2AD6D7A19AC3
:10022000E5527AEF05F02EEC06F0FD0EDBA403D0CC
:10023000E66ADFEC05F0FD0EDBA204D0010EE66EEF
:10024000DFEC05F0FE0EDB500C6A700F0B6E0F0E2C
:10025000D9EC05F06BEC05F0FD0EDBCFEFFF020EE5
:10026000E15C02E2E16AE552E16E7AEF05F02EEC24
:1002700006F0FD0EDB5003E062EC05F002D099ECD5
:1002800005F0C5EC05F0D9CFE9FFDACFEAFFEE5073
:10029000ED1003E1F36AF46A28D06BEC05F086EC0C
:1002A00006F0FB0EDBCFEEFFFC0EDBCFEDFF6BECC1
:1002B00005F0EE52FA0EDBCFEFFF400E7CEC06F0BD
:1002C000880E8BEC06F0FD0EDB5003E062EC05F0CF
:1002D00002D099EC05F0EA22EF74DECF0BF0DDCF0F
:1002E0000CF00BC0F3FF0CC0F4FF020EE15C02E265
:1002F000E16AE552E16E7AEF05F02EEC06F0FE0EB3
:10030000DB5003E13CEC06F009D09EEC05F01CEC60
:1003100006F09EEC05F0010F1CEC06F0020EE15C0D
:1003200002E2E16AE552E16EE5D3DFDB6DA816D0AB
:100330004DEC06F0400EEE16EE6AEE6AEE6A4DECFB
:1003400006F0EE7CBFDBEA22EF74400E0B6E4DEC44
:1003500006F00B50EF164DEC06F0EF7CCBD300010E
:100360008A5122E1010E8A6F8B511EE1010E8B6FC3
:10037000020E705D07E1B4DBEE52EF6AB1DBC80E2E
:10038000EF6E1200700510E1836BC0DBEE52080EB9
:10039000EF6EBCDB28EC06F0B9DB840EEF6E010ECD
:1003A000836F8CDB800EEF6E120000018C6B8D6B07
:1003B000020E705D06E180EC06F0ADDB17EC06F096
:1003C00010D074510401265D0001755104012759B4
:1003D00004E226C474F027C475F061D881DB9BDB8E
:1003E0007FDBC80EEF6E12002EEC06F0000EDE6E04
:1003F000040EDD6EA3DB040DF4CF0CF0D9CFE9FFC2
:10040000DACFEAFFF350EE260C50ED2264DBEF9ECC
:10041000FD0EDB5002E18DDB01D054DBEA22DECFA2
:10042000EEFFDDCFEDFF57DBEF9C55DB040EE92639
:10043000000EEA22EF8C020EE15C02E2E16AE55274
:10044000E16E58D36D98000173BF0DD078AF09D01D
:10045000020E706F8D5101E1A8DF00018B6B8A6B7A
:1004600012003CEF06F0040120AF0DD00001010E98
:10047000706F8C5101E199DF00018B6B8A6B8951A0
:100480000DE1AFEF01F00001020E706F17DB840E7B
:10049000EF6E8B6B8A6B895101E161DF12005AECC0
:1004A00006F0080EDF6E0001745D000E75590AE259
:1004B00074C0DFFF6F5102E1010E03D06F0502E14E
:1004C000020E6F6FDF500C6AE850745D746F0C5051
:1004D0007559756F05DBEE52DFCFEFFF280E7D6F8C
:1004E000040E7E6F73B10DD0DF5017E071C0F6FFC0
:1004F00072C0F7FF712B000E72230800F55038DB35
:10050000F3D7DF500AE071C0E9FF72C0EAFF712B38
:10051000000E7223EF502CDBF4D7E552EBD29EDBBA
:10052000F5DAEE52EFCFDFFFDFCF0BF00B5000011B
:10053000795D000E7A5902E279C0DFFFDF500B6E61
:100540000C6AE850795D796F0C507A597A6F010E18
:10055000DB6ADF50F36E010EDBCFF4FFF350F45C87
:1005600016E2010EDB50EA6A280FE96E040EEA2259
:10057000EF50E66E76C0E9FF77C0EAFF762B000EFB
:100580007723E552E750EF6E010EDB2AE2D7000E2B
:10059000D8807955000E7A550DE2B2DBBCDAB6DAB6
:1005A000EF50400B03E143DBC80E02D040DB880E66
:1005B000EF6E12D083DA840EEF6E7B517C1107E070
:1005C00005D07CC0FAFF00017B51F96EFADF000113
:1005D000789F895101E1C3DE020EE15C02E2E16A2B
:1005E000E552E16E87D266DB0001738F5DDB200E82
:1005F000E66EE66AE66A000EE66E040E92DA6D8C2E
:10060000DF6A020EDF5C02E2A3DAFBD70BDB620ECD
:10061000E66E000E86DA6D9C0001080E6B6F040E0C
:100620006C6F000E636F040E646F63C065F0666FDD
:1006300022C461F0615102E1100E0BD0010EE66E92
:10064000E66A610EE66E000EE66E010E40DA00010B
:10065000200E606FE5524ED2800E0401205D38E11D
:100660000001C00E736F04012351030A1AE0010A4E
:1006700009E0030A2BE100011E0E716F0D0E726F6F
:10068000120E1ED0C1DAEC0EF6260D0EA0DA020E06
:100690000001B3DAF5CF74F0030EAFDAF5CF75F0E1
:1006A0001200030E225D0FE2AFDAEE0EF6260D0EFB
:1006B0008EDA71C0F6FF72C0F7FF0800F550000136
:1006C000746F756B12000001736B12000001736B85
:1006D0001200C4DA0401286B296B20511F0B020A97
:1006E00011E0030A0CE0010A1EE10001738F04010E
:1006F000288100017F0517E10401288314D000013F
:10070000738F11D00001738F040124BF02D0BBDAB4
:1007100001D0BEDA3ADAC4DA06E0DDD9EF50040BD4
:1007200002E0010E286F000173AF07D0280E716F31
:10073000040E726F7381020E746F020EE15C02E2AE
:10074000E16AE552E16ED6D170A00CD0DFD9EF504E
:10075000800807E1C5D9EF50840803E1D7D98C0E92
:10076000EF6E7090689A1200698468986D8200013B
:10077000010E806F10DA750E67EF05F00001806BD7
:100780000ADA740EA4D96D92699468A402D06894B0
:10079000FCD712008FDA00012D0E886FFD0E811537
:1007A00039E17E0E8115E8407F0B040DF3CF63F035
:1007B000F4CF64F0000E6327040E642363C065F079
:1007C00064C066F06575A2D9EF503C0BE842E84280
:1007D0000D081EE1DF6A080EDF5C16E297D9020EF3
:1007E000E926000EBFD9EF50E66EDF50EA6A200F0F
:1007F000E96E040EEA22E552E750EF6E87D986DAF9
:10080000EE2AEF22DF2AE7D781D922DA0AD807D0E9
:1008100023D805D0FD0E8115040801E12CD8E5523E
:1008200069D100016F6B896B8C6B8D6B836B706B07
:1008300057D9EF9E6B7554D9EF9E6B75F8D9EF9E23
:10084000736B746B756B786B796B7A6B4ED8A3D9BD
:10085000030E3DD922EF02F0020E0001705D02E1AD
:100860008FEF02F0706B835104E128D98C0EEF6E8C
:100870001200836B12001EDA33D9EF50400B01E0F7
:10088000010EDF6E00016B75080E605D08E122C489
:100890006EFF6E5002E0100E01D0040E606F700506
:1008A00013E11ED938D9FBDD020E00016F5D03E1B3
:1008B00017D9840E07D0DF5003E112D9C80E02D039
:1008C0000FD9880EEF6E0FD078AF0CD07B517C1112
:1008D00007E005D07CC0FAFF00017B51F96EFADF1A
:1008E0000001789F706BE55205D104012051600B27
:1008F000E842E842E842E842E842000901E012002A
:1009000021510C0A45E00B0A3FE00C0A31E0010AD4
:1009100022E00B0A1EE0020A1CE0030A18E0080AA3
:1009200010E0010A0CE00F0A08E0030A01E01200DF
:100930000001738F080E606F12002CEF03F0F3EFCD
:1009400002F00001610E716F000E726F0CD069EF42
:1009500003F0C9EF04F024510001716F726B620E55
:100960007127000E72237381010E746F738F120052
:100970000001738F04012451EA6A620FE96E000ED0
:10098000EA2222C4EFFF120006D9020E67EF05F03B
:100990001200ABD8050EE1260401220510E120511A
:1009A0001F0B00090CE10001738F030E0401215D90
:1009B00004E10001010E7F6F02D000017F6B040192
:1009C000225101E074D020511F0B020870E1245124
:1009D0000F0B00096CE024510F0B010868E3200E97
:1009E0000001605D64E1738F040124BF04D04BD922
:1009F000CCD8D7D803D04CD9C8D8D7D8EA22020E41
:100A0000EFCFDBFF08D9010B03E1000EDF9401D02B
:100A1000DF8424BF02D037D901D03AD9EA22DECF11
:100A2000EEFFDDCFEDFF030E215D0CE139D907E0CC
:100A300024BF02D0B6D801D0B8D8EA22EF82840E03
:100A40006AD935D0DF742CD906E045D8EF9E43D85B
:100A5000EF8C08D902D03FD8EF8CDF74DCD8020BC2
:100A600002E11ED90DE0040124BF02D09AD801D0C2
:100A70009CD8EA22EF923B0E0B6E3ED9F3D802D0FF
:100A80003B0E3AD9040124510F0B0C6A700F0B6E08
:100A90000F0E0C22030E0BC0DBFF040E0CC0DBFF9D
:100AA000030EDBCFE9FF040EDBCFEAFFEF90050E6C
:100AB000E15C02E2E16AE552E16E1CD021D9C8D8BE
:100AC00017EF06F0FE0EEA6ADB345DEF06F0E66E25
:100AD000E66A6BEF06F0DECFE9FFDDCFEAFF12003A
:100AE0006BC0E9FF6CC0EAFF1200D9CFE6FFE1CF8F
:100AF000D9FF1200E552E7CFD9FF120024510F0BA6
:100B0000E96EEA6AD890E936EA36120063C0E9FF76
:100B100064C0EAFF1200FAD8280EEE6E040EED6EE5
:100B20001200E66EACEC07F00B6E050EE15E0B50AA
:100B30001200FE0EEA6ADB3464EF06F0FD0EDB50B5
:100B4000E8240D6EFE0EDB50040DF3500D24120050
:100B5000DF50CDD8EA22EF6ADF50C4D8EA22EF6A2C
:100B6000DF2A1200EA22EE50EFCFEAFFE96E120010
:100B7000E66E7DC0E9FF7EC0EAFF7D2B000E7E237E
:100B8000E552E750EF6EDF061200EA22EECFDEFFFD
:100B9000EDCFDDFF1200000EE66EE66AE66EE66A55
:100BA000120024510F0B72EF06F024510F0B77EF58
:100BB00006F00C220BC0DEFF0CC0DDFF1200FE0EA3
:100BC000DBCFE6FFF4EC01F0E552E5521200F7222C
:100BD0000900F5CF71F00A00F5CF72F01200160E81
:100BE0006F6E9F0E6B6E7B0E696E1200010EE66ECD
:100BF000E66A000EE66EE66A1200F76A7125F66E86
:100C00007251F722080012002251F66EF76AD8904E
:100C1000F636F7361200D950020FE96EDACFEAFF46
:100C2000EF501200010EE66EE66AE66A120065C039
:100C3000E9FF66C0EAFF1200040DF3CF0BF0F4CF1A
:100C40000CF0000E0B26040EB4DF840E8BEF06F0C2
:100C50005DD8200EEE6E040EED6E120046DF020E21
:100C6000E1261200020EE66EE66ADECFE6FFDDCF79
:100C7000E6FF050E67EF05F021DF8C0EEF6E30DF2B
:100C8000840EEF6E12003ADF670EE926000E1200A6
:100C900035DF6B0EE926000E120014DFB2EF05F00F
:100CA0001ADFEF50800B1200BDDF710EE66E0F0EE3
:100CB00091EF05F01ADFE6521200FE0BEA36E96EFC
:100CC0006B0EE926000E1200FE0BEA36E96E670E87
:100CD000E926000E120048EC09F00B6E060EE15EEC
:100CE0000B501200EA6A860FE96E000E1200EA6AE3
:100CF000840FE96E000E1200EEDEE850EF161200CF
:100D000096DFEE52080EEF6E17EF06F0020EE926A0
:0E0D1000000EEA221200DFDEE850EF121200A1
:020D1E001201C0
:100D2000000200000008D804550001000102000183
:100D300009022900010100E0320904000002030158
:100D40000100092111010001223F0007058103086C
:100D50000001070501030800010403090434034DE1
:100D6000006900630072006F006300680069007032
:100D700000200054006500630068006E006F006C86
:100D8000006F0067007900200049006E0063002EAC
:100D9000001C034B006500790062006F0061007267
:100DA0000064002000440065006D006F000501092B
:100DB00006A101050719E029E71500250175019530
:100DC00008810295017508810395057501050819CB
:100DD0000129059102950175039103950675081582
:100DE0000025650507190029658100C0300D590DE2
:040DF0005D0D910DF7
:0C0DF400040120511F0B010801E0120057
:100E0000245101E01200060E215D1BE12351230A4B
:100E100018E0010A0CE0030A14E10001610511E188
:100E20000001420E716F0D0E726F090E06D00001A7
:100E3000AD0E716F0D0E726F3F0E746F756BC00E3D
:100E4000736F04012051600BE842E842E842E84237
:100E5000E842010801E0120021510B0A28E0080ACB
:100E60001BE0090A13E0080A07E00B0A03E0080A7E
:100E700023E012008CEF09F00001B70E716F000E35
:100E8000726F010E746F756BC10E0FD00001800E72
:100E9000736F23C4B7F012000001B80E716F000E1B
:100EA000726F010E746F756B810E736F120000010B
:0A0EB000800E736F22C4B8F0120028
:060EBA001E0EF66E000E94
:100EC000F76E000EF86E00010900F550B26F0900D0
:100ED000F550B36F03E1B26701D03DD00900F55082
:100EE000AD6F0900F550AE6F0900F550AF6F090006
:100EF0000900F550E96E0900F550EA6E0900090095
:100F00000900F550B06F0900F550B16F09000900F4
:100F1000F6CFB4F0F7CFB5F0F8CFB6F0ADC0F6FF2E
:100F2000AEC0F7FFAFC0F8FF0001B05302E1B1530C
:100F300007E00900F550EE6EB007F8E2B107F9D707
:100F4000B4C0F6FFB5C0F7FFB6C0F8FF0001B207A6
:080F5000000EB35BBFD71200D5
:080F5800FE0EE3CFE9FFFF0EDE
:100F6000E3CFEAFFE9CFF3FFEACFF4FFFB0EE35054
:100F700003E1FC0EE35009E0FB0EE30602E2FC0E87
:0C0F8000E306FD0EE350EE6EF1D7120008
:040F8C00000EF36EF2
:100F900000EE00F0080E01D81200EA6002D0EE6AFE
:0C0FA000FCD7F350E9601200EE6AFCD7A9
:040FAC0013EE00F050
:100FB00023EE00F0F86A0A9C5DEC07F003EC08F001
:080FC0006AEC08F0FBD71200F7
:06100000D6EF07F012001C
:021006001200D6
:061008000FEF08F01200DA
:0610180059EF08F0120080
:02101E00DACF27
:10102000E4FFE2CFDAFFE9CFE4FFEACFE4FFF6CF57
:10103000E4FFF7CFE4FFF5CFE4FFF3CFE4FFF4CF15
:10104000E4FFFACFE4FF00EE00F00B0EE80403E348
:10105000EECFE4FFFBD700EE0BF0030EE80403E352
:10106000EECFE4FFFBD7E65275D8E55200EE0DF067
:10107000030EE80403E3E5CFEDFFFBD700EE0AF033
:101080000B0EE80403E3E5CFEDFFFBD7E5CFFAFF56
:10109000E5CFF4FFE5CFF3FFE5CFF5FFE5CFF7FFB1
:1010A000E5CFF6FFE5CFEAFFE5CFE9FFE5CFDAFFD1
:1010B0001100D8CFE4FFE0CFE4FFE46EDACFE4FF25
:1010C000E652E552E5CFDAFFE550E5CFE0FFE5CFA8
:1010D000D8FF100004D878EC00F011D8FCD70F0E20
:1010E000C11202D816EF00F00001A06BA16BA26B39
:1010F000A36BF19EF290F286F28EAA6B1200200E84
:101100000001E76E6019E8AE02D0E73402D0E75084
:10111000605D05E36D50020B01E0120037D812004C
:101120001BD90501006B016BFE0EDBCF02F5036BD3
:10113000046B056B066B076B080EE66E000EE66E21
:10114000050EE66E010EE66E10D9F3CFA0F0F4CFD7
:10115000A1F007D101D9E652F2A016D0F290300EDC
:101160008114DF6E0001B951040DF350C00BDF1084
:10117000B96FE850700A05E0A00A06E10001010E0F
:1011800002D00001020EAA6FE552EBD0E5D8E6527C
:101190000001A051A11102E1000E08D0A0C0E9FF9A
:1011A000A1C0EAFFEF50800B01E0010E000911E140
:1011B000AA0502E1800E04D0020EAA5D03E1810EB1
:1011C000DF6E01D0DF6ADFCFE6FFAADFE552000164
:1011D000AA6BE552C6D089908992130ED36E120085
:1011E000BBD8020EE126600ED36E200EDE6E030E1B
:1011F000DD6EDFCF0BF0DF06010EDBCF0CF001E27E
:10120000DB060B500C10F5E1020EE15C02E2E16A34
:10121000E552E16EA6D012001200FAEF06F01200BD
:101220001E0EE66E010EE66E13EC01F0E552E5527D
:10123000010EE66E080EE66E050EE66EE66A010E1B
:1012400094D8F3CFA2F0F4CFA3F0120000017F05F1
:101250001EE1000180051BE1C3DF6D920001806B80
:101260000001100EAB6F0E0EAC6FAB07000EAC5B47
:10127000AB51AC11FAE16D84080EAB6F070EAC6F89
:10128000AB07000EAC5BAB51AC11FAE16D941200F0
:1012900063D8FD0EDBCF06F0FE0EDBCF07F0050EA8
:1012A000061801E1075036E0E868061802E17F0EF3
:1012B00007182FE0030E061801E1075028E0020E80
:1012C000061801E1075021E0010E061801E1075060
:1012D0001AE0740E061801E1075013E0750E0618A7
:1012E00001E107500CE0730E061801E1075005E01C
:1012F000720E06180FE107500DD08DDF0BD06BDF9B
:1013000009D06EDF07D08CDF05D089DF03D085DF01
:1013100001D082DF010E25D00001280E766F040E69
:10132000776F080E796F7A6B340E7B6F130E7C6FBC
:10133000788F1200040128A103D08980898202D00D
:10134000899089920001A56BE00EA66F220EA76F0F
:10135000020EA86FA96B1200D9CFE6FFE1CFD9FF2B
:101360001200E552E7CFD9FF1200E66E37EC01F02C
:0A1370000B6E050EE15E0B5012003B
:020000040030CA
:0100000024DB
:010001000EF0
:010002003FBE
:010003001EDE
:010005008179
:010006008178
:010008000FE8
:01000900C036
:01000A000FE6
:01000B00E014
:01000C000FE4
:01000D0040B2
:00000001FF
