:020000040000FA
:060000002CEF03F01200DA
:020006001200E6
:0600080004EF08F01200F5
:060018000CEF08F01200DD
:02001E00DACF37
:10002000E4FFE2CFDAFFE9CFE4FFEACFE4FFF6CF67
:10003000E4FFF7CFE4FFF5CFE4FFF3CFE4FFF4CF25
:10004000E4FFFACFE4FF00EE00F00B0EE80403E358
:10005000EECFE4FFFBD700EE0BF0030EE80403E362
:10006000EECFE4FFFBD7E6525ED8E55200EE0DF08E
:10007000030EE80403E3E5CFEDFFFBD700EE0AF043
:100080000B0EE80403E3E5CFEDFFFBD7E5CFFAFF66
:10009000E5CFF4FFE5CFF3FFE5CFF5FFE5CFF7FFC1
:1000A000E5CFF6FFE5CFEAFFE5CFE9FFE5CFDAFFE1
:1000B0001100D8CFE4FFE0CFE4FFE46EDACFE4FF35
:1000C000E652E552E5CFDAFFE550E5CFE0FFE5CFB8
:1000D000D8FF100004D89FEC08F014D8FCD70F0EFE
:1000E000C11202D80FEF08F002017B6B7C6B7D6BB5
:1000F0007E6B7F6AF19EF290F286300E7A6EF28EFF
:10010000856B1200200E0201E76E3019E8AE02D0B6
:10011000E73402D0E750305D05E36450020B01E0A4
:1001200012004DD81200D9CFE6FFE1CFD9FFE65239
:10013000F2A01AD0F29081380F0B030BDF6E020190
:100140008751040DF350DF24876F0F0E87178751F7
:10015000070A06E00A0A08E185C286F2010E03D00A
:1001600085C286F2020E856FE552E552E7CFD9FFD0
:100170001200D9CFE6FFE1CFD9FF0201606B616BBE
:10018000FE0EDBCF62F2636B646B656B666B676B55
:10019000080EE66E600EE66E020EE66E010EE66E6C
:1001A000E66E9CEC09F00B6E050EE15E0B50F3CF92
:1001B0007BF2F4CF7CF2E552E7CFD9FF1200D9CF22
:1001C000E6FFE1CFD9FFE65202017B517C1102E14B
:1001D000000E08D07BC2E9FF7CC2EAFFEF50800B23
:1001E00001E0010E000919E1865102E1855115E097
:1001F000855102E1DF6A09D0850502E1800E04D055
:10020000020E855D02E1810EDF6EDFCFE6FFB1DF1A
:10021000E55285C286F20201856BE552E552E7CFD1
:10022000D9FF12008B908B92130ED36E1200D9CF90
:10023000E6FFE1CFD9FF020EE126600ED36E200E5D
:10024000DE6E030EDD6EDFCF0BF0DF06010EDBCFBF
:100250000CF001E2DB060B500C10F5E1020EE15C44
:1002600002E2E16AE552E16EE552E7CFD9FF120002
:100270001200120050EF02F012001E0EE66E010E88
:10028000E66E65EC09F0E552E552010EE66E680E89
:10029000E66E020EE66EE66A010EE66E9CEC09F072
:1002A0000B6E050EE15E0B50F3CF7DF2F4CF7EF2C4
:1002B000120002014F051EE1020150051BE1B7DFEC
:1002C00064920201506B0201100E886F0E0E896F4E
:1002D0008807000E895B88518911FAE16484080E51
:1002E000886F070E896F8807000E895B8851891116
:1002F000FAE164941200D9CFE6FFE1CFD9FFFD0EF9
:10030000DBCF06F0FE0EDBCF07F0050E061801E18D
:10031000075036E0E868061802E17F0E07182FE064
:10032000030E061801E1075028E0020E061801E14D
:10033000075021E0010E061801E107501AE0740E83
:10034000061801E1075013E0750E061801E1075089
:100350000CE0730E061801E1075005E0720E061856
:100360000FE107500DD084DF0BD05CDF09D05FDFD9
:1003700007D083DF05D080DF03D07CDF01D079DFB9
:10038000010EE552E7CFD9FF12000201280E466F99
:10039000020E476F080E496F4A6BA60E4B6F030E95
:1003A0004C6F488F1200020128A103D08B808B82F2
:1003B00002D08B908B920201806BE00E816F220E37
:0A03C000826F020E836F846B12003F
:0603CA0012010002000018
:1003D0000008D804550001000102000109022900AB
:1003E000010100E0320904000002030101000921BB
:1003F00011010001223F00070581030800010705E4
:1004000001030800010403090434034D006900637B
:100410000072006F006300680069007000200054E3
:10042000006500630068006E006F006C006F00677D
:10043000007900200049006E0063002E001C034B71
:10044000006500790062006F0061007200640020A6
:1004500000440065006D006F0005010906A101055B
:100460000719E029E7150025017501950881029516
:100470000175088103950575010508190129059184
:10048000029501750391039506750815002565050C
:1004900007190029658100C0DC03050409043D0437
:1004A000020120511F0B010801E01200245101E05C
:1004B0001200060E215D1BE12351230A18E0010AF8
:1004C0000CE0030A14E10201310511E10201EE0E14
:1004D000416F030E426F090E06D00201590E416FA3
:1004E000040E426F3F0E446F456BC00E436F020116
:1004F0002051600BE842E842E842E842E842010845
:1005000001E0120021510B0A28E0080A1BE0090A49
:1005100013E0080A07E00B0A03E0080A23E01200D0
:10052000C5EF01F002015E0E416F020E426F010E37
:10053000446F456BC10E0FD00201800E436F23C282
:100540005EF2120002015F0E416F020E426F010E59
:10055000446F456B810E436F12000201800E436FA2
:0605600022C25FF212004E
:0A056600060EF66E100EF76E000E82
:10057000F86E02010900F5508F6F0900F550906F79
:1005800003E18F6701D03DD00900F5508A6F090063
:10059000F5508B6F0900F5508C6F09000900F5507C
:1005A000E96E0900F550EA6E090009000900F550EE
:1005B0008D6F0900F5508E6F09000900F6CF91F29A
:1005C000F7CF92F2F8CF93F28AC2F6FF8BC2F7FF11
:1005D0008CC2F8FF02018D5302E18E5307E009003F
:1005E000F550EE6E8D07F8E28E07F9D791C2F6FF4F
:1005F00092C2F7FF93C2F8FF02018F07000E905BD3
:04060000BFD712004E
:0C060400FE0EE3CFE9FFFF0EE3CFEAFF9C
:10061000E9CFF3FFEACFF4FFFB0EE35003E1FC0E5A
:10062000E35009E0FB0EE30602E2FC0EE306FD0EDA
:08063000E350EE6EF1D7120059
:08063800000EF36E00EE00F06D
:10064000030E01D81200EA6002D0EE6AFCD7F35024
:08065000E9601200EE6AFCD71C
:0806580011EE00F021EE00F0AC
:10066000F86A0A9CB3EC02F003EC00F06AEC00F0CC
:04067000FBD71200A2
:061000002CEF03F01200CA
:021006000000E8
:061008000FEF00F01200E2
:0610180059EF00F0120088
:02101E00D9CF28
:10102000E6FFE1CFD9FFE652A0940F015F6B626A41
:10103000536B010EE66EE66AE66A540EE66E0F0E1C
:10104000E66E02EC03F00B6E050EE15E0B50160E21
:10105000616E0F019F0E5B6F7B0E606EDF6ADF506B
:101060000B6E0C6A080E0B5C000E0C5810E2DF5081
:10107000040DF3CFE9FFF4CFEAFF000EE926020EDC
:10108000EA22EE6AEE6AEE6AEE6ADF2AE8D7648C3C
:101090000F015C6B6498649C62A607D062960201A3
:1010A000436B486B496B4A6BF7D70201010E5A6FCD
:1010B0005B6F5C6B5D6B506BDF6A020EDF5C26E280
:1010C000EA6ADF34FE0BEA36E96E3B0EE926020ED1
:1010D000EA22EE6AED6AEA6ADF34FE0BEA36E96E6E
:1010E000370EE926020EEA22EE6AED6ADF50EA6A5E
:1010F000540FE96E020EEA22EF6ADF50EA6A560FD9
:10110000E96E020EEA22EF6ADF2AD7D70201080E43
:101110003B6F020E3C6F0F01160E536F0201200E43
:10112000026F020E036F080E016F840E006F020142
:10113000316B306BE552E552E7CFD9FF1200D9CFC2
:10114000E6FFE1CFD9FFE6520201305110E1646AB7
:10115000606A160E616E0F019F0E5B6F7B0E606EF4
:1011600064B602D06486FCD70201010E306F3005F0
:1011700008E164BA06D0626A606A60806088020E24
:10118000306F6250040B06E06050040B03E0629481
:101190007DEC0EF064B259D06250010B08E0605053
:1011A000010B05E03CDF0201040E306F62906250DB
:1011B000100B06E06050100B03E068EC0EF0629834
:1011C00062AC19D060AC0FD0010EE66EE66A000E7C
:1011D000E66EE66A730EE66EE66A7BEC01F00B6E75
:1011E000060EE15E0B50629C0201585101E0580767
:1011F000585101E1E0D96250200B05E06050200B0E
:1012000002E04EEC0EF06250020B14E06050020B54
:1012100011E0010EE66EE66A000EE66EE66AE6682A
:101220007F0EE66E7BEC01F00B6E060EE15E0B505E
:101230000F015F6B040E0201E76E3019E8AE02D0B9
:10124000E73402D0E750305D02E2A19439D060A6C5
:1012500036D0DF6A040EDF5C32E262A630D063CFA4
:1012600051F202015151780BE842E842E842526FD4
:10127000629651B506D05251EA6A560FE96E020ED7
:1012800005D05251EA6A540FE96E020EEA22EF705D
:10129000525103E194EC0EF010D0000EE66EE66AB7
:1012A000510EE66E020EE66E720EE66EE66A7BEC9C
:1012B00001F00B6E060EE15E0B50DF2ACBD7A19436
:1012C000E552E552E7CFD9FF1200D9CFE6FFE1CFD3
:1012D000D9FF020EE126FD0EDBA407D0E66AFE0E62
:1012E000DBCFE6FFF7D9E552E552FD0EDBA208D0D1
:1012F000010EE66EFE0EDBCFE6FFECD9E552E552BD
:10130000FE0EDB500C6A530F0B6E0F0E0C220BC03F
:10131000DEFF0CC0DDFFDECFE9FFDDCFEAFFFD0E13
:10132000DBCFEFFF020EE15C02E2E16AE552E16E23
:10133000E552E7CFD9FF1200D9CFE6FFE1CFD9FFC1
:10134000020EE126FD0EDB500AE0FE0EEA6ADB34F7
:10135000FE0BEA36E96E3B0EE926020E09D0FE0EC0
:10136000EA6ADB34FE0BEA36E96E370EE926020E36
:10137000EA22EECFDEFFEDCFDDFFD9CFE9FFDACFF6
:10138000EAFFEE50ED1003E1F36AF46A44D0DECFD9
:10139000E9FFDDCFEAFF020EE926000EEA22FB0E8E
:1013A000DBCFEEFFFC0EDBCFEDFFDECFE9FFDDCFC5
:1013B000EAFFEE52FA0EDBCFEFFF400EDECFE9FF81
:1013C000DDCFEAFFE850EF16880EDECFE9FFDDCF74
:1013D000EAFFE850EF12FD0EDB500AE0FE0EEA6A6B
:1013E000DB34FE0BEA36E96E3B0EE926020E09D02D
:1013F000FE0EEA6ADB34FE0BEA36E96E370EE926AA
:10140000020EEA22EF74DECF0BF0DDCF0CF00BC042
:10141000F3FF0CC0F4FF020EE15C02E2E16AE55268
:10142000E16EE552E7CFD9FF1200D9CFE6FFE1CF59
:10143000D9FF020EE126FE0EDB5020E135C2E9FFA6
:1014400036C2EAFFEE52080EEF6E35C2E9FF36C231
:10145000EAFF020EE926000EEA22200EEE6E020ED0
:10146000ED6E35C2E9FF36C2EAFF8C0EEF6E3BC26D
:10147000E9FF3CC2EAFF840EEF6E3BD0FD0EDB506D
:10148000E8240D6EFE0EDB50040DF3500D24040D08
:10149000F3CF0BF0F4CF0CF0000E0B26020E0C2253
:1014A0000BC0DEFF0CC0DDFF840EDECFE9FFDDCF19
:1014B000EAFFE850EF12FD0EDB50E8240D6EFE0E41
:1014C000DB50040DF3500D24010F040DF3CF0BF08E
:1014D000F4CF0CF0000E0B26020E0C220BC0DEFF28
:1014E0000CC0DDFF840EDECFE9FFDDCFEAFFE85060
:1014F000EF12020EE15C02E2E16AE552E16EE552B2
:10150000E7CFD9FF1200D9CFE6FFE1CFD9FF64A81A
:101510004ED0FE0EEA6ADB34FE0BEA36E96E3B0E75
:10152000E926020EEA22EE50EFCFEAFFE96E400E06
:10153000EE16EE6AEE6AEE6AFE0EEA6ADB34FE0B27
:10154000EA36E96E3B0EE926020EEA22EE50EFCFB4
:10155000EAFFE96EEE7CFE0EEA6ADB34FE0BEA3649
:10156000E96E3B0EE926020EEA22EF74400E0B6E86
:10157000FE0EEA6ADB34FE0BEA36E96E3B0EE92624
:10158000020EEA22EE50EFCFEAFFE96E0B50EF16A3
:10159000FE0EEA6ADB34FE0BEA36E96E3B0EE92604
:1015A000020EEA22EE50EFCFEAFFE96EEF7CE55241
:1015B000E7CFD9FF120002015A514DE1010E5A6FD7
:1015C0005B5149E1010E5B6F020E405D0DE13BC2D4
:1015D000E9FF3CC2EAFFEE52EF6A3BC2E9FF3CC2C0
:1015E000EAFFC80EEF6E1200400535E1536B33C2BF
:1015F000E9FF34C2EAFFEE52080EEF6E33C2E9FF94
:1016000034C2EAFF020EE926000EEA22200EEE6E38
:10161000020EED6E33C2E9FF34C2EAFF840EEF6EB4
:10162000010E536F35C2E9FF36C2EAFFEE52080ED3
:10163000EF6E35C2E9FF36C2EAFF020EE926000E60
:10164000EA22200EEE6E020EED6E35C2E9FF36C2C2
:10165000EAFF800EEF6E120002015C6B5D6B020E02
:10166000405D18E135C2E9FF36C2EAFFEE52080ECE
:10167000EF6E35C2E9FF36C2EAFF020EE926000E20
:10168000EA22280EEE6E020EED6E35C2E9FF36C27A
:10169000EAFF1DD044510201265D020145510201BD
:1016A000275904E226C244F227C245F2CAD83BC2F7
:1016B000E9FF3CC2EAFF020EE926000EEA22280EEC
:1016C000EE6E020EED6E3BC2E9FF3CC2EAFFC80EB1
:1016D000EF6E1200D9CFE6FFE1CFD9FF020EE1266F
:1016E000000EDE6E020EDD6EFD0EDB50E8240D6E88
:1016F000FE0EDB50040DF3500D24040DF4CF0CF05E
:10170000D9CFE9FFDACFEAFFF350EE260C50ED22F5
:10171000DECFE9FFDDCFEAFFEF9EFD0EDB500AE1F1
:10172000FE0EEA6ADB34FE0BEA36E96E370EE92676
:10173000020E09D0FE0EEA6ADB34FE0BEA36E96ED1
:101740003B0EE926020EEA22DECFEEFFDDCFEDFFF3
:10175000DECFE9FFDDCFEAFFEF9CDECFE9FFDDCF93
:10176000EAFF040EE926000EEA22EF8C020EE15C8D
:1017700002E2E16AE552E16EE552E7CFD9FF1200DD
:101780006498020143BF2BD048AF09D0020E406FCE
:101790005D5101E161DF02015B6B5A6B120035C2E2
:1017A000E9FF36C2EAFFEE52080EEF6E35C2E9FFDE
:1017B00036C2EAFF020EE926000EEA22200EEE6E85
:1017C000020EED6E35C2E9FF36C2EAFF8C0EEF6EF7
:1017D0003BC2E9FF3CC2EAFF840EEF6E1200020139
:1017E00020AF0DD00201010E406F5C5101E134DFEA
:1017F00002015B6B5A6B595123E1DBEF0AF00201E6
:10180000020E406F35C2E9FF36C2EAFFEE52080E03
:10181000EF6E35C2E9FF36C2EAFF020EE926000E7E
:10182000EA22200EEE6E020EED6E35C2E9FF36C2E0
:10183000EAFF840EEF6E5B6B5A6B595101E1BBDE20
:101840001200D9CFE6FFE1CFD9FFE652080EDF6ED6
:101850000201445D000E45590AE244C2DFFF3F51D8
:1018600002E1010E03D03F0502E1020E3F6FDF509F
:101870000C6AE850445D446F0C504559456F3BC2BB
:10188000E9FF3CC2EAFFEE52DFCFEFFF280E4D6FBB
:10189000020E4E6F43B118D0DF502DE041C2F6FF6B
:1018A00042C2F7FF412B000E42230800F550E66EBE
:1018B0004DC2E9FF4EC2EAFF4D2B000E4E23E5520A
:1018C000E750EF6EDF06E8D7DF5015E041C2E9FFD1
:1018D00042C2EAFF412B000E4223EF50E66E4DC29A
:1018E000E9FF4EC2EAFF4D2B000E4E23E552E750B2
:1018F000EF6EDF06E9D7E552E552E7CFD9FF1200D8
:10190000D9CFE6FFE1CFD9FF020EE12633C2E9FFCE
:1019100034C2EAFFEE52EFCFDFFFDFCF0BF00B5008
:101920000201495D000E4A5902E249C2DFFFDF5061
:101930000B6E0C6AE850495D496F0C504A594A6F6A
:10194000010EDB6ADF50F36E010EDBCFF4FFF350C4
:10195000F45C16E2010EDB50EA6A280FE96E020E13
:10196000EA22EF50E66E46C2E9FF47C2EAFF462B85
:10197000000E4723E552E750EF6E010EDB2AE2D757
:10198000000ED8804955000E4A5527E235C2E9FFBE
:1019900036C2EAFFEE52080EEF6E35C2E9FF36C2DC
:1019A000EAFF020EE926000EEA22280EEE6E020E73
:1019B000ED6E33C2E9FF34C2EAFFEF50400B06E19F
:1019C00035C2E9FF36C2EAFFC80E05D035C2E9FFCD
:1019D00036C2EAFF880EEF6E28D035C2E9FF36C264
:1019E000EAFFEE52080EEF6E35C2E9FF36C2EAFF9B
:1019F000020EE926000EEA22200EEE6E020EED6EB9
:101A000035C2E9FF36C2EAFF840EEF6E4B514C112E
:101A100007E005D04CC2FAFF02014B51F96EFADF24
:101A20000201489F595101E1C6DD020EE15C02E26C
:101A3000E16AE552E16EE552E7CFD9FF1200D9CF56
:101A4000E6FFE1CFD9FFE6520201438F010EE66EB9
:101A5000E66AE66A540EE66E0F0EE66E02EC03F0DE
:101A60000B6E050EE15E0B50200EE66EE66AE66A2E
:101A7000000EE66E020EE66E02EC03F00B6E050E33
:101A8000E15E0B50648CDF6A020EDF5C10E2DF5017
:101A9000EA6A540FE96E020EEA22EF6ADF50EA6A40
:101AA000560FE96E020EEA22EF6ADF2AEDD7010E29
:101AB000E66EE66AE66A320EE66E020EE66E02EC4C
:101AC00003F00B6E050EE15E0B50649C0201080EE4
:101AD0003B6F020E3C6F000E336F020E346F33C249
:101AE00035F2366F22C231F2315102E1100E12D0BE
:101AF000010EE66EE66A310EE66E020EE66E010E2D
:101B0000E66EE66A7BEC01F00B6E060EE15E0B50B2
:101B10000201200E306FE552E552E7CFD9FF1200E7
:101B2000800E0201205D58E10201C00E436F0201E8
:101B30002351030A2FE0010A09E0030A4BE10201E5
:101B4000CA0E416F030E426F120E3ED02251F66E46
:101B5000F76AD890F636F736980EF626040EF72276
:101B60000900F5CF41F20A00F5CF42F2020E020160
:101B7000F76A4125F66E4251F7220800F5CF44F28C
:101B8000030EF76A4125F66E4251F7220800F5CFA1
:101B900045F21200030E225D1AE22251F66EF76A38
:101BA000D890F636F7369A0EF626040EF72209007C
:101BB000F5CF41F20A00F5CF42F241C2F6FF42C230
:101BC000F7FF0800F5500201446F456B1200020157
:101BD000436B12000201436B1200D9CFE6FFE1CF45
:101BE000D9FF020EE1260201286B296B20511F0B41
:101BF000020A11E0030A0CE0010A3CE10201438FF2
:101C00000201288102014F0535E10201288332D00B
:101C10000201438F2FD00201438F020124BF0BD05A
:101C200024510F0BE96EEA6AD890E936EA36370E8E
:101C3000E926020E0AD024510F0BE96EEA6AD89009
:101C4000E936EA363B0EE926020EEA22EECFDEFF47
:101C5000EDCFDDFFDECFE9FFDDCFEAFFEF50800BF8
:101C600009E0DECFE9FFDDCFEAFFEF50040B02E031
:101C7000010E286F020143AF07D0280E416F020EFC
:101C8000426F4381020E446F020EE15C02E2E16AA0
:101C9000E552E16EE552E7CFD9FF12000F0153A1E3
:101CA00015D033C2E9FF34C2EAFFEF5080080DE1DE
:101CB0003BC2E9FF3CC2EAFFEF50840806E133C2B1
:101CC000E9FF34C2EAFF8C0EEF6E5391629A120064
:101CD0006084629864820201010E506F000EE66E0D
:101CE000E66AE66EE66A750EE66EE66A7BEC01F081
:101CF0000B6E060EE15E0B5012000201506B000EDF
:101D0000E66EE66AE66EE66A740EE66EE66A7BECFE
:101D100001F00B6E060EE15E0B506492609462A4BB
:101D200002D06294FCD71200D9CFE6FFE1CFD9FFF1
:101D3000E65202012D0E586FFD0E511553E17E0E35
:101D40005115E8407F0B040DF3CF33F2F4CF34F29A
:101D5000000E3327020E342333C235F234C236F27A
:101D6000357533C2E9FF34C2EAFFEF503C0BE8425D
:101D7000E8420D0835E1DF6A080EDF5C23E233C27A
:101D8000E9FF34C2EAFF020EE926000EEA22EE5015
:101D9000EFCFEAFFE96EEF50E66EDF50EA6A200F00
:101DA000E96E020EEA22E552E750EF6E33C2E9FF18
:101DB00034C2EAFF020EE926000EEA22EE2AEF22E2
:101DC000DF2ADAD733C2E9FF34C2EAFF020EE9267E
:101DD000000EEA22200EEE6E020EED6E0DD807D038
:101DE0003AD805D0FD0E5115040801E159D8E55245
:101DF000E552E7CFD9FF120002013F6B596B5C6BD4
:101E00005D6B536B406B3BC2E9FF3CC2EAFFEF9E48
:101E10003B753BC2E9FF3CC2EAFFEF9E3B7535C212
:101E2000E9FF36C2EAFFEF9E436B446B456B486B9C
:101E3000496B4A6B8FD8000EE66EE66AE66EE66A7C
:101E4000030EE66EE66A7BEC01F00B6E060EE15EB9
:101E50000B50C0EF0BF0020E0201405D02E180EF7B
:101E60000CF0406B53511AE135C2E9FF36C2EAFF6C
:101E7000EE52080EEF6E35C2E9FF36C2EAFF020EDF
:101E8000E926000EEA22200EEE6E020EED6E35C23D
:101E9000E9FF36C2EAFF8C0EEF6E1200536B1200A0
:101EA000D9CFE6FFE1CFD9FFE6523BC2E9FF3CC202
:101EB000EAFFEF50400B01E0010EDF6E02013B75BF
:101EC000080E305D0BE122C25CFF0F015C5103E0A4
:101ED0000201100E02D00201040E306F400526E10F
:101EE0003BC2E9FF3CC2EAFF020EE926000EEA22ED
:101EF000280EEE6E020EED6EA4DC020E02013F5DB6
:101F000006E13BC2E9FF3CC2EAFF840E0DD0DF5080
:101F100006E13BC2E9FF3CC2EAFFC80E05D03BC266
:101F2000E9FF3CC2EAFF880EEF6E0FD048AF0CD03D
:101F30004B514C1107E005D04CC2FAFF02014B5146
:101F4000F96EFADF0201489F406BE552E552E7CF98
:101F5000D9FF120002012051600BE842E842E8423A
:101F6000E842E842000901E0120021510C0A50E069
:101F70000B0A3FE00C0A31E0010A22E00B0A1EE0E6
:101F8000020A1CE0030A18E0080A10E0010A0CE04B
:101F90000F0A08E0030A01E012000201438F080E55
:101FA000306F120090EF0DF01FEF0DF00201310EB7
:101FB000416F020E426F0CD0EDEF0DF009EF10F003
:101FC00024510201416F426B320E4127020E42231F
:101FD0004381010E446F438F12000201438F0201BF
:101FE0002451EA6A320FE96E020EEA2222C2EFFFA2
:101FF0001200000EE66EE66AE66EE66A020EE66E15
:10200000E66A7BEC01F00B6E060EE15E0B501200EF
:102010001200D9CFE6FFE1CFD9FF050EE12602017C
:10202000220510E120511F0B00090CE10201438F32
:10203000030E0201215D04E10201010E4F6F02D087
:1020400002014F6B0201225101E011D120511F0BFF
:10205000020801E00CD124510F0B000901E107D166
:1020600024510F0B010801E202D1200E0201305D64
:1020700001E0FDD0438F020124BF16D024510F0B85
:10208000E96EEA6AD890E936EA36370EE926020E9A
:10209000EA22EECFDEFFEDCFDDFF24510F0BEA6A1F
:1020A000560FE96E020E15D024510F0BE96EEA6A45
:1020B000D890E936EA363B0EE926020EEA22EECF48
:1020C000DEFFEDCFDDFF24510F0BEA6A540FE96EFE
:1020D000020EEA22020EEFCFDBFFD950020FE96EAB
:1020E000DACFEAFFEF50010B03E1000EDF9401D0DD
:1020F000DF8424BF0BD024510F0BE96EEA6AD8901D
:10210000E936EA36370EE926020E0AD024510F0BC3
:10211000E96EEA6AD890E936EA363B0EE926020E05
:10212000EA22DECFEEFFDDCFEDFF030E215D20E1E1
:10213000DECFE9FFDDCFEAFFEF50800B11E024BFD7
:1021400007D024510F0BEA6A560FE96E020E06D033
:1021500024510F0BEA6A540FE96E020EEA22EF8255
:10216000840EDECFE9FFDDCFEAFFE850EF127FD02B
:10217000DF74DECFE9FFDDCFEAFFEF50800B1BE01D
:10218000DECFE9FFDDCFEAFFEF9EDECFE9FFDDCF57
:10219000EAFFEF8C020EE66EE66ADECFE6FFDDCFE9
:1021A000E6FF050EE66EE66A7BEC01F00B6E060EAE
:1021B000E15E0B5005D0DECFE9FFDDCFEAFFEF8C0B
:1021C000DF74D950020FE96EDACFEAFFEF50020B4D
:1021D00007E1DECFE9FFDDCFEAFFEF50800B2BE018
:1021E000020124BF07D024510F0BEA6A560FE96E93
:1021F000020E06D024510F0BEA6A540FE96E020E4C
:10220000EA22EF923B0E0B6EDECFE9FFDDCFEAFF55
:10221000E850EF16020EE66EE66ADECFE6FFDDCF8F
:10222000E6FF050EE66EE66A7BEC01F00B6E060E2D
:10223000E15E0B5007D03B0EDECFE9FFDDCFEAFFBA
:10224000E850EF16020124510F0B0C6A530F0B6E6E
:102250000F0E0C22030E0BC0DBFF040E0CC0DBFFC5
:10226000030EDBCFE9FF040EDBCFEAFFEF90050E94
:10227000E15C02E2E16AE552E16EE552E7CFD9FFA7
:0222800012004A
:020000040030CA
:0100000000FF
:0100010032CC
:0100020001FC
:010003001EDE
:0100050000FA
:010006008178
:0100080003F4
:01000900C036
:01000A0003F2
:01000B00E014
:01000C0003F0
:01000D0040B2
:00000001FF
